{
  "address": "0x9Dbb1cf7b0EC2f54581d31DdfbaA6eCC275320F1",
  "abi": [
    {
      "inputs": [
        {
          "internalType": "address[]",
          "name": "_owners",
          "type": "address[]"
        },
        {
          "internalType": "uint256",
          "name": "_minConfirmationsRequired",
          "type": "uint256"
        }
      ],
      "stateMutability": "nonpayable",
      "type": "constructor"
    },
    {
      "anonymous": false,
      "inputs": [
        {
          "indexed": true,
          "internalType": "address",
          "name": "owner",
          "type": "address"
        },
        {
          "indexed": true,
          "internalType": "uint256",
          "name": "txIndex",
          "type": "uint256"
        }
      ],
      "name": "ConfirmTransaction",
      "type": "event"
    },
    {
      "anonymous": false,
      "inputs": [
        {
          "indexed": true,
          "internalType": "address",
          "name": "sender",
          "type": "address"
        },
        {
          "indexed": false,
          "internalType": "uint256",
          "name": "amount",
          "type": "uint256"
        },
        {
          "indexed": false,
          "internalType": "uint256",
          "name": "balance",
          "type": "uint256"
        }
      ],
      "name": "Deposit",
      "type": "event"
    },
    {
      "anonymous": false,
      "inputs": [
        {
          "indexed": true,
          "internalType": "address",
          "name": "owner",
          "type": "address"
        },
        {
          "indexed": true,
          "internalType": "uint256",
          "name": "txIndex",
          "type": "uint256"
        }
      ],
      "name": "ExecuteTransaction",
      "type": "event"
    },
    {
      "anonymous": false,
      "inputs": [
        {
          "indexed": true,
          "internalType": "address",
          "name": "owner",
          "type": "address"
        },
        {
          "indexed": true,
          "internalType": "uint256",
          "name": "txIndex",
          "type": "uint256"
        }
      ],
      "name": "RevokeConfirmation",
      "type": "event"
    },
    {
      "anonymous": false,
      "inputs": [
        {
          "indexed": true,
          "internalType": "uint256",
          "name": "txIndex",
          "type": "uint256"
        },
        {
          "indexed": true,
          "internalType": "address",
          "name": "owner",
          "type": "address"
        },
        {
          "indexed": true,
          "internalType": "address",
          "name": "to",
          "type": "address"
        },
        {
          "indexed": false,
          "internalType": "uint256",
          "name": "value",
          "type": "uint256"
        },
        {
          "indexed": false,
          "internalType": "address",
          "name": "tokenaddress",
          "type": "address"
        }
      ],
      "name": "SubmitTransaction",
      "type": "event"
    },
    {
      "inputs": [
        {
          "internalType": "uint256",
          "name": "_txIndex",
          "type": "uint256"
        }
      ],
      "name": "confirmTransaction",
      "outputs": [],
      "stateMutability": "nonpayable",
      "type": "function"
    },
    {
      "inputs": [
        {
          "internalType": "uint256",
          "name": "_txIndex",
          "type": "uint256"
        }
      ],
      "name": "executeTransaction",
      "outputs": [],
      "stateMutability": "nonpayable",
      "type": "function"
    },
    {
      "inputs": [],
      "name": "getOwners",
      "outputs": [
        {
          "internalType": "address[]",
          "name": "",
          "type": "address[]"
        }
      ],
      "stateMutability": "view",
      "type": "function"
    },
    {
      "inputs": [
        {
          "internalType": "uint256",
          "name": "_txIndex",
          "type": "uint256"
        }
      ],
      "name": "getTransaction",
      "outputs": [
        {
          "components": [
            {
              "internalType": "address",
              "name": "to",
              "type": "address"
            },
            {
              "internalType": "uint256",
              "name": "value",
              "type": "uint256"
            },
            {
              "internalType": "bool",
              "name": "executed",
              "type": "bool"
            },
            {
              "internalType": "uint256",
              "name": "numConfirmations",
              "type": "uint256"
            },
            {
              "internalType": "address",
              "name": "tokenaddress",
              "type": "address"
            }
          ],
          "internalType": "struct IMultiSignWallet.Transaction",
          "name": "",
          "type": "tuple"
        }
      ],
      "stateMutability": "view",
      "type": "function"
    },
    {
      "inputs": [],
      "name": "getTransactionCount",
      "outputs": [
        {
          "internalType": "uint256",
          "name": "",
          "type": "uint256"
        }
      ],
      "stateMutability": "view",
      "type": "function"
    },
    {
      "inputs": [],
      "name": "minConfirmationsRequired",
      "outputs": [
        {
          "internalType": "uint256",
          "name": "",
          "type": "uint256"
        }
      ],
      "stateMutability": "view",
      "type": "function"
    },
    {
      "inputs": [
        {
          "internalType": "uint256",
          "name": "",
          "type": "uint256"
        }
      ],
      "name": "owners",
      "outputs": [
        {
          "internalType": "address",
          "name": "",
          "type": "address"
        }
      ],
      "stateMutability": "view",
      "type": "function"
    },
    {
      "inputs": [
        {
          "internalType": "uint256",
          "name": "_txIndex",
          "type": "uint256"
        }
      ],
      "name": "revokeConfirmation",
      "outputs": [],
      "stateMutability": "nonpayable",
      "type": "function"
    },
    {
      "inputs": [
        {
          "internalType": "address",
          "name": "_to",
          "type": "address"
        },
        {
          "internalType": "uint256",
          "name": "_value",
          "type": "uint256"
        },
        {
          "internalType": "address",
          "name": "_tokenaddress",
          "type": "address"
        }
      ],
      "name": "submitTransaction",
      "outputs": [],
      "stateMutability": "nonpayable",
      "type": "function"
    },
    {
      "inputs": [
        {
          "internalType": "uint256",
          "name": "",
          "type": "uint256"
        }
      ],
      "name": "transactions",
      "outputs": [
        {
          "internalType": "address",
          "name": "to",
          "type": "address"
        },
        {
          "internalType": "uint256",
          "name": "value",
          "type": "uint256"
        },
        {
          "internalType": "bool",
          "name": "executed",
          "type": "bool"
        },
        {
          "internalType": "uint256",
          "name": "numConfirmations",
          "type": "uint256"
        },
        {
          "internalType": "address",
          "name": "tokenaddress",
          "type": "address"
        }
      ],
      "stateMutability": "view",
      "type": "function"
    },
    {
      "stateMutability": "payable",
      "type": "receive"
    }
  ],
  "transactionHash": "0xf493aca8aa0758d346ea4e99352e96eaab34e359f73e931454216dea7ba98639",
  "args": [
    [
      "0x294e0bCC654D249eA6EF17f9f83d20B58999C921",
      "0x843F0F7BBF1da45651f6f302162f4B0d04B996CB",
      "0x20269f35CcE661911bFbA5021a9a740b3beb6783"
    ],
    2
  ],
  "numDeployments": 2,
  "solcInputHash": "fd8361ede95dd9f264afba7f5a515b14",
  "bytecode": "0x60806040523480156200001157600080fd5b50604051620024e5380380620024e583398181016040528101906200003791906200050e565b60008251116200007e576040517f08c379a00000000000000000000000000000000000000000000000000000000081526004016200007590620005d5565b60405180910390fd5b60008111801562000090575081518111155b620000d2576040517f08c379a0000000000000000000000000000000000000000000000000000000008152600401620000c9906200066d565b60405180910390fd5b60005b8251811015620002d5576000838281518110620000f757620000f66200068f565b5b60200260200101519050600073ffffffffffffffffffffffffffffffffffffffff168173ffffffffffffffffffffffffffffffffffffffff160362000173576040517f08c379a00000000000000000000000000000000000000000000000000000000081526004016200016a906200070e565b60405180910390fd5b600360008273ffffffffffffffffffffffffffffffffffffffff1673ffffffffffffffffffffffffffffffffffffffff16815260200190815260200160002060009054906101000a900460ff161562000203576040517f08c379a0000000000000000000000000000000000000000000000000000000008152600401620001fa9062000780565b60405180910390fd5b6001600360008373ffffffffffffffffffffffffffffffffffffffff1673ffffffffffffffffffffffffffffffffffffffff16815260200190815260200160002060006101000a81548160ff0219169083151502179055506000819080600181540180825580915050600190039060005260206000200160009091909190916101000a81548173ffffffffffffffffffffffffffffffffffffffff021916908373ffffffffffffffffffffffffffffffffffffffff160217905550508080620002cc90620007d1565b915050620000d5565b508060028190555050506200081e565b6000604051905090565b600080fd5b600080fd5b600080fd5b6000601f19601f8301169050919050565b7f4e487b7100000000000000000000000000000000000000000000000000000000600052604160045260246000fd5b6200034982620002fe565b810181811067ffffffffffffffff821117156200036b576200036a6200030f565b5b80604052505050565b600062000380620002e5565b90506200038e82826200033e565b919050565b600067ffffffffffffffff821115620003b157620003b06200030f565b5b602082029050602081019050919050565b600080fd5b600073ffffffffffffffffffffffffffffffffffffffff82169050919050565b6000620003f482620003c7565b9050919050565b6200040681620003e7565b81146200041257600080fd5b50565b6000815190506200042681620003fb565b92915050565b6000620004436200043d8462000393565b62000374565b90508083825260208201905060208402830185811115620004695762000468620003c2565b5b835b8181101562000496578062000481888262000415565b8452602084019350506020810190506200046b565b5050509392505050565b600082601f830112620004b857620004b7620002f9565b5b8151620004ca8482602086016200042c565b91505092915050565b6000819050919050565b620004e881620004d3565b8114620004f457600080fd5b50565b6000815190506200050881620004dd565b92915050565b60008060408385031215620005285762000527620002ef565b5b600083015167ffffffffffffffff811115620005495762000548620002f4565b5b6200055785828601620004a0565b92505060206200056a85828601620004f7565b9150509250929050565b600082825260208201905092915050565b7f6f776e6572732072657175697265640000000000000000000000000000000000600082015250565b6000620005bd600f8362000574565b9150620005ca8262000585565b602082019050919050565b60006020820190508181036000830152620005f081620005ae565b9050919050565b7f696e76616c6964206e756d626572206f6620726571756972656420636f6e666960008201527f726d6174696f6e73000000000000000000000000000000000000000000000000602082015250565b60006200065560288362000574565b91506200066282620005f7565b604082019050919050565b60006020820190508181036000830152620006888162000646565b9050919050565b7f4e487b7100000000000000000000000000000000000000000000000000000000600052603260045260246000fd5b7f696e76616c6964206f776e657200000000000000000000000000000000000000600082015250565b6000620006f6600d8362000574565b91506200070382620006be565b602082019050919050565b600060208201905081810360008301526200072981620006e7565b9050919050565b7f6f776e6572206e6f7420756e6971756500000000000000000000000000000000600082015250565b60006200076860108362000574565b9150620007758262000730565b602082019050919050565b600060208201905081810360008301526200079b8162000759565b9050919050565b7f4e487b7100000000000000000000000000000000000000000000000000000000600052601160045260246000fd5b6000620007de82620004d3565b91507fffffffffffffffffffffffffffffffffffffffffffffffffffffffffffffffff8203620008135762000812620007a2565b5b600182019050919050565b611cb7806200082e6000396000f3fe6080604052600436106100955760003560e01c80639ace38c2116100595780639ace38c2146101ea578063a0e67e2b1461022b578063c01a8c8414610256578063ca75cbfe1461027f578063ee22610b146102a8576100ec565b8063025e7c27146100f157806320ea8d861461012e5780632e7700f01461015757806333ea3dc81461018257806353fbb95d146101bf576100ec565b366100ec573373ffffffffffffffffffffffffffffffffffffffff167f90890809c654f11d6e72a28fa60149770a0d11ec6c92319d6ceb2bb0a4ea1a1534476040516100e2929190611336565b60405180910390a2005b600080fd5b3480156100fd57600080fd5b5061011860048036038101906101139190611390565b6102d1565b60405161012591906113fe565b60405180910390f35b34801561013a57600080fd5b5061015560048036038101906101509190611390565b610310565b005b34801561016357600080fd5b5061016c6105e6565b6040516101799190611419565b60405180910390f35b34801561018e57600080fd5b506101a960048036038101906101a49190611390565b6105f3565b6040516101b691906114d5565b60405180910390f35b3480156101cb57600080fd5b506101d461070a565b6040516101e19190611419565b60405180910390f35b3480156101f657600080fd5b50610211600480360381019061020c9190611390565b610710565b6040516102229594939291906114ff565b60405180910390f35b34801561023757600080fd5b506102406107a3565b60405161024d9190611601565b60405180910390f35b34801561026257600080fd5b5061027d60048036038101906102789190611390565b610831565b005b34801561028b57600080fd5b506102a660048036038101906102a1919061164f565b610b0a565b005b3480156102b457600080fd5b506102cf60048036038101906102ca9190611390565b610d54565b005b600081815481106102e157600080fd5b906000526020600020016000915054906101000a900473ffffffffffffffffffffffffffffffffffffffff1681565b600360003373ffffffffffffffffffffffffffffffffffffffff1673ffffffffffffffffffffffffffffffffffffffff16815260200190815260200160002060009054906101000a900460ff1661039c576040517f08c379a0000000000000000000000000000000000000000000000000000000008152600401610393906116ff565b60405180910390fd5b8060018054905081106103e4576040517f08c379a00000000000000000000000000000000000000000000000000000000081526004016103db9061176b565b60405180910390fd5b81600181815481106103f9576103f861178b565b5b906000526020600020906005020160020160009054906101000a900460ff1615610458576040517f08c379a000000000000000000000000000000000000000000000000000000000815260040161044f90611806565b60405180910390fd5b60006001848154811061046e5761046d61178b565b5b906000526020600020906005020190506004600085815260200190815260200160002060003373ffffffffffffffffffffffffffffffffffffffff1673ffffffffffffffffffffffffffffffffffffffff16815260200190815260200160002060009054906101000a900460ff1661051b576040517f08c379a000000000000000000000000000000000000000000000000000000000815260040161051290611872565b60405180910390fd5b806003016000815461052c906118c1565b9190508190555060006004600086815260200190815260200160002060003373ffffffffffffffffffffffffffffffffffffffff1673ffffffffffffffffffffffffffffffffffffffff16815260200190815260200160002060006101000a81548160ff021916908315150217905550833373ffffffffffffffffffffffffffffffffffffffff167ff0dca620e2e81f7841d07bcc105e1704fb01475b278a9d4c236e1c62945edd5560405160405180910390a350505050565b6000600180549050905090565b6105fb6112c0565b6001828154811061060f5761060e61178b565b5b90600052602060002090600502016040518060a00160405290816000820160009054906101000a900473ffffffffffffffffffffffffffffffffffffffff1673ffffffffffffffffffffffffffffffffffffffff1673ffffffffffffffffffffffffffffffffffffffff168152602001600182015481526020016002820160009054906101000a900460ff16151515158152602001600382015481526020016004820160009054906101000a900473ffffffffffffffffffffffffffffffffffffffff1673ffffffffffffffffffffffffffffffffffffffff1673ffffffffffffffffffffffffffffffffffffffff16815250509050919050565b60025481565b6001818154811061072057600080fd5b90600052602060002090600502016000915090508060000160009054906101000a900473ffffffffffffffffffffffffffffffffffffffff16908060010154908060020160009054906101000a900460ff16908060030154908060040160009054906101000a900473ffffffffffffffffffffffffffffffffffffffff16905085565b6060600080548060200260200160405190810160405280929190818152602001828054801561082757602002820191906000526020600020905b8160009054906101000a900473ffffffffffffffffffffffffffffffffffffffff1673ffffffffffffffffffffffffffffffffffffffff16815260200190600101908083116107dd575b5050505050905090565b600360003373ffffffffffffffffffffffffffffffffffffffff1673ffffffffffffffffffffffffffffffffffffffff16815260200190815260200160002060009054906101000a900460ff166108bd576040517f08c379a00000000000000000000000000000000000000000000000000000000081526004016108b4906116ff565b60405180910390fd5b806001805490508110610905576040517f08c379a00000000000000000000000000000000000000000000000000000000081526004016108fc9061176b565b60405180910390fd5b816001818154811061091a5761091961178b565b5b906000526020600020906005020160020160009054906101000a900460ff1615610979576040517f08c379a000000000000000000000000000000000000000000000000000000000815260040161097090611806565b60405180910390fd5b826004600082815260200190815260200160002060003373ffffffffffffffffffffffffffffffffffffffff1673ffffffffffffffffffffffffffffffffffffffff16815260200190815260200160002060009054906101000a900460ff1615610a18576040517f08c379a0000000000000000000000000000000000000000000000000000000008152600401610a0f90611936565b60405180910390fd5b600060018581548110610a2e57610a2d61178b565b5b906000526020600020906005020190508060030160008154610a4f90611956565b9190508190555060016004600087815260200190815260200160002060003373ffffffffffffffffffffffffffffffffffffffff1673ffffffffffffffffffffffffffffffffffffffff16815260200190815260200160002060006101000a81548160ff021916908315150217905550843373ffffffffffffffffffffffffffffffffffffffff167f5cbe105e36805f7820e291f799d5794ff948af2a5f664e580382defb6339004160405160405180910390a35050505050565b600360003373ffffffffffffffffffffffffffffffffffffffff1673ffffffffffffffffffffffffffffffffffffffff16815260200190815260200160002060009054906101000a900460ff16610b96576040517f08c379a0000000000000000000000000000000000000000000000000000000008152600401610b8d906116ff565b60405180910390fd5b6000600180549050905060016040518060a001604052808673ffffffffffffffffffffffffffffffffffffffff168152602001858152602001600015158152602001600081526020018473ffffffffffffffffffffffffffffffffffffffff16815250908060018154018082558091505060019003906000526020600020906005020160009091909190915060008201518160000160006101000a81548173ffffffffffffffffffffffffffffffffffffffff021916908373ffffffffffffffffffffffffffffffffffffffff1602179055506020820151816001015560408201518160020160006101000a81548160ff0219169083151502179055506060820151816003015560808201518160040160006101000a81548173ffffffffffffffffffffffffffffffffffffffff021916908373ffffffffffffffffffffffffffffffffffffffff16021790555050508373ffffffffffffffffffffffffffffffffffffffff163373ffffffffffffffffffffffffffffffffffffffff16827f12ddcbf3873d6910e6d34e3a0b7ba7ae5f6822dc9f92bb66071b299bbadb143c8686604051610d4692919061199e565b60405180910390a450505050565b600360003373ffffffffffffffffffffffffffffffffffffffff1673ffffffffffffffffffffffffffffffffffffffff16815260200190815260200160002060009054906101000a900460ff16610de0576040517f08c379a0000000000000000000000000000000000000000000000000000000008152600401610dd7906116ff565b60405180910390fd5b806001805490508110610e28576040517f08c379a0000000000000000000000000000000000000000000000000000000008152600401610e1f9061176b565b60405180910390fd5b8160018181548110610e3d57610e3c61178b565b5b906000526020600020906005020160020160009054906101000a900460ff1615610e9c576040517f08c379a0000000000000000000000000000000000000000000000000000000008152600401610e9390611806565b60405180910390fd5b600060018481548110610eb257610eb161178b565b5b9060005260206000209060050201905060025481600301541015610f0b576040517f08c379a0000000000000000000000000000000000000000000000000000000008152600401610f0290611a13565b60405180910390fd5b60018160020160006101000a81548160ff0219169083151502179055503073ffffffffffffffffffffffffffffffffffffffff168160040160009054906101000a900473ffffffffffffffffffffffffffffffffffffffff1673ffffffffffffffffffffffffffffffffffffffff16036110a0578060010154471015610fc6576040517f08c379a0000000000000000000000000000000000000000000000000000000008152600401610fbd90611a7f565b60405180910390fd5b60008160000160009054906101000a900473ffffffffffffffffffffffffffffffffffffffff1673ffffffffffffffffffffffffffffffffffffffff16826001015460405161101490611ad0565b60006040518083038185875af1925050503d8060008114611051576040519150601f19603f3d011682016040523d82523d6000602084013e611056565b606091505b505090508061109a576040517f08c379a000000000000000000000000000000000000000000000000000000000815260040161109190611b31565b60405180910390fd5b50611276565b60008160040160009054906101000a900473ffffffffffffffffffffffffffffffffffffffff16905081600101548173ffffffffffffffffffffffffffffffffffffffff166370a08231306040518263ffffffff1660e01b815260040161110791906113fe565b602060405180830381865afa158015611124573d6000803e3d6000fd5b505050506040513d601f19601f820116820180604052508101906111489190611b66565b1015611189576040517f08c379a000000000000000000000000000000000000000000000000000000000815260040161118090611bdf565b60405180910390fd5b60008173ffffffffffffffffffffffffffffffffffffffff1663a9059cbb8460000160009054906101000a900473ffffffffffffffffffffffffffffffffffffffff1685600101546040518363ffffffff1660e01b81526004016111ee929190611bff565b6020604051808303816000875af115801561120d573d6000803e3d6000fd5b505050506040513d601f19601f820116820180604052508101906112319190611c54565b905080611273576040517f08c379a000000000000000000000000000000000000000000000000000000000815260040161126a90611b31565b60405180910390fd5b50505b833373ffffffffffffffffffffffffffffffffffffffff167f5445f318f4f5fcfb66592e68e0cc5822aa15664039bd5f0ffde24c5a8142b1ac60405160405180910390a350505050565b6040518060a00160405280600073ffffffffffffffffffffffffffffffffffffffff1681526020016000815260200160001515815260200160008152602001600073ffffffffffffffffffffffffffffffffffffffff1681525090565b6000819050919050565b6113308161131d565b82525050565b600060408201905061134b6000830185611327565b6113586020830184611327565b9392505050565b600080fd5b61136d8161131d565b811461137857600080fd5b50565b60008135905061138a81611364565b92915050565b6000602082840312156113a6576113a561135f565b5b60006113b48482850161137b565b91505092915050565b600073ffffffffffffffffffffffffffffffffffffffff82169050919050565b60006113e8826113bd565b9050919050565b6113f8816113dd565b82525050565b600060208201905061141360008301846113ef565b92915050565b600060208201905061142e6000830184611327565b92915050565b61143d816113dd565b82525050565b61144c8161131d565b82525050565b60008115159050919050565b61146781611452565b82525050565b60a0820160008201516114836000850182611434565b5060208201516114966020850182611443565b5060408201516114a9604085018261145e565b5060608201516114bc6060850182611443565b5060808201516114cf6080850182611434565b50505050565b600060a0820190506114ea600083018461146d565b92915050565b6114f981611452565b82525050565b600060a08201905061151460008301886113ef565b6115216020830187611327565b61152e60408301866114f0565b61153b6060830185611327565b61154860808301846113ef565b9695505050505050565b600081519050919050565b600082825260208201905092915050565b6000819050602082019050919050565b600061158a8383611434565b60208301905092915050565b6000602082019050919050565b60006115ae82611552565b6115b8818561155d565b93506115c38361156e565b8060005b838110156115f45781516115db888261157e565b97506115e683611596565b9250506001810190506115c7565b5085935050505092915050565b6000602082019050818103600083015261161b81846115a3565b905092915050565b61162c816113dd565b811461163757600080fd5b50565b60008135905061164981611623565b92915050565b6000806000606084860312156116685761166761135f565b5b60006116768682870161163a565b93505060206116878682870161137b565b92505060406116988682870161163a565b9150509250925092565b600082825260208201905092915050565b7f6e6f74206f776e65720000000000000000000000000000000000000000000000600082015250565b60006116e96009836116a2565b91506116f4826116b3565b602082019050919050565b60006020820190508181036000830152611718816116dc565b9050919050565b7f747820646f6573206e6f74206578697374000000000000000000000000000000600082015250565b60006117556011836116a2565b91506117608261171f565b602082019050919050565b6000602082019050818103600083015261178481611748565b9050919050565b7f4e487b7100000000000000000000000000000000000000000000000000000000600052603260045260246000fd5b7f747820616c726561647920657865637574656400000000000000000000000000600082015250565b60006117f06013836116a2565b91506117fb826117ba565b602082019050919050565b6000602082019050818103600083015261181f816117e3565b9050919050565b7f5478206e6f7420636f6e6669726d656400000000000000000000000000000000600082015250565b600061185c6010836116a2565b915061186782611826565b602082019050919050565b6000602082019050818103600083015261188b8161184f565b9050919050565b7f4e487b7100000000000000000000000000000000000000000000000000000000600052601160045260246000fd5b60006118cc8261131d565b9150600082036118df576118de611892565b5b600182039050919050565b7f747820616c726561647920636f6e6669726d6564000000000000000000000000600082015250565b60006119206014836116a2565b915061192b826118ea565b602082019050919050565b6000602082019050818103600083015261194f81611913565b9050919050565b60006119618261131d565b91507fffffffffffffffffffffffffffffffffffffffffffffffffffffffffffffffff820361199357611992611892565b5b600182019050919050565b60006040820190506119b36000830185611327565b6119c060208301846113ef565b9392505050565b7f63616e6e6f742065786563757465207478000000000000000000000000000000600082015250565b60006119fd6011836116a2565b9150611a08826119c7565b602082019050919050565b60006020820190508181036000830152611a2c816119f0565b9050919050565b7f6c6f636b206f6620455448000000000000000000000000000000000000000000600082015250565b6000611a69600b836116a2565b9150611a7482611a33565b602082019050919050565b60006020820190508181036000830152611a9881611a5c565b9050919050565b600081905092915050565b50565b6000611aba600083611a9f565b9150611ac582611aaa565b600082019050919050565b6000611adb82611aad565b9150819050919050565b7f54782065786563757465206661696c6564000000000000000000000000000000600082015250565b6000611b1b6011836116a2565b9150611b2682611ae5565b602082019050919050565b60006020820190508181036000830152611b4a81611b0e565b9050919050565b600081519050611b6081611364565b92915050565b600060208284031215611b7c57611b7b61135f565b5b6000611b8a84828501611b51565b91505092915050565b7f6c6f636b206f662062616c616e63650000000000000000000000000000000000600082015250565b6000611bc9600f836116a2565b9150611bd482611b93565b602082019050919050565b60006020820190508181036000830152611bf881611bbc565b9050919050565b6000604082019050611c1460008301856113ef565b611c216020830184611327565b9392505050565b611c3181611452565b8114611c3c57600080fd5b50565b600081519050611c4e81611c28565b92915050565b600060208284031215611c6a57611c6961135f565b5b6000611c7884828501611c3f565b9150509291505056fea2646970667358221220e0f9720afb2e4d27ac9f608c030062b45117ddbec91df670329eed0641f4636e64736f6c63430008140033",
  "devdoc": {
    "kind": "dev",
    "methods": {},
    "version": 1
  },
  "userdoc": {
    "kind": "user",
    "methods": {},
    "version": 1
  },
  "storageLayout": {
    "storage": [
      {
        "astId": 86,
        "contract": "contracts/MultiSignWallet.sol:MultiSignWallet",
        "label": "owners",
        "offset": 0,
        "slot": "0",
        "type": "t_array(t_address)dyn_storage"
      },
      {
        "astId": 90,
        "contract": "contracts/MultiSignWallet.sol:MultiSignWallet",
        "label": "transactions",
        "offset": 0,
        "slot": "1",
        "type": "t_array(t_struct(Transaction)554_storage)dyn_storage"
      },
      {
        "astId": 92,
        "contract": "contracts/MultiSignWallet.sol:MultiSignWallet",
        "label": "minConfirmationsRequired",
        "offset": 0,
        "slot": "2",
        "type": "t_uint256"
      },
      {
        "astId": 96,
        "contract": "contracts/MultiSignWallet.sol:MultiSignWallet",
        "label": "isOwner",
        "offset": 0,
        "slot": "3",
        "type": "t_mapping(t_address,t_bool)"
      },
      {
        "astId": 102,
        "contract": "contracts/MultiSignWallet.sol:MultiSignWallet",
        "label": "isConfirmed",
        "offset": 0,
        "slot": "4",
        "type": "t_mapping(t_uint256,t_mapping(t_address,t_bool))"
      }
    ],
    "types": {
      "t_address": {
        "encoding": "inplace",
        "label": "address",
        "numberOfBytes": "20"
      },
      "t_array(t_address)dyn_storage": {
        "base": "t_address",
        "encoding": "dynamic_array",
        "label": "address[]",
        "numberOfBytes": "32"
      },
      "t_array(t_struct(Transaction)554_storage)dyn_storage": {
        "base": "t_struct(Transaction)554_storage",
        "encoding": "dynamic_array",
        "label": "struct IMultiSignWallet.Transaction[]",
        "numberOfBytes": "32"
      },
      "t_bool": {
        "encoding": "inplace",
        "label": "bool",
        "numberOfBytes": "1"
      },
      "t_mapping(t_address,t_bool)": {
        "encoding": "mapping",
        "key": "t_address",
        "label": "mapping(address => bool)",
        "numberOfBytes": "32",
        "value": "t_bool"
      },
      "t_mapping(t_uint256,t_mapping(t_address,t_bool))": {
        "encoding": "mapping",
        "key": "t_uint256",
        "label": "mapping(uint256 => mapping(address => bool))",
        "numberOfBytes": "32",
        "value": "t_mapping(t_address,t_bool)"
      },
      "t_struct(Transaction)554_storage": {
        "encoding": "inplace",
        "label": "struct IMultiSignWallet.Transaction",
        "members": [
          {
            "astId": 545,
            "contract": "contracts/MultiSignWallet.sol:MultiSignWallet",
            "label": "to",
            "offset": 0,
            "slot": "0",
            "type": "t_address"
          },
          {
            "astId": 547,
            "contract": "contracts/MultiSignWallet.sol:MultiSignWallet",
            "label": "value",
            "offset": 0,
            "slot": "1",
            "type": "t_uint256"
          },
          {
            "astId": 549,
            "contract": "contracts/MultiSignWallet.sol:MultiSignWallet",
            "label": "executed",
            "offset": 0,
            "slot": "2",
            "type": "t_bool"
          },
          {
            "astId": 551,
            "contract": "contracts/MultiSignWallet.sol:MultiSignWallet",
            "label": "numConfirmations",
            "offset": 0,
            "slot": "3",
            "type": "t_uint256"
          },
          {
            "astId": 553,
            "contract": "contracts/MultiSignWallet.sol:MultiSignWallet",
            "label": "tokenaddress",
            "offset": 0,
            "slot": "4",
            "type": "t_address"
          }
        ],
        "numberOfBytes": "160"
      },
      "t_uint256": {
        "encoding": "inplace",
        "label": "uint256",
        "numberOfBytes": "32"
      }
    }
  }
}